:08000000803102288731FD2F39
:100F140016302100970008007A30210099009801CA
:100F240022009601080087319F27873187318E2759
:100F3400873187318A2787310800220090018C018C
:100F44008D018E01083021009000F8308C00FF30B4
:100F54008D00FF308E003F3023008D003F308C0029
:100F6400240090018D012100951722009D010800A5
:100F74008731952787311030F1000030F2002200CC
:100F84000C14F401F501FF30F107FF30F23D01309C
:100F9400F4070030F53D7508803AF00080307002A7
:100FA400031DD62F10307402031CD92FDA2FC52F3E
:100FB400103074067504031DE02FE12FEA2F710829
:100FC4007204031DE62FE72FEA2F22008C14EC2F66
:100FD40022000C150C10F3010130F0007008F30727
:100FE400730A031DF62FF72FEE2F22008C100C111D
:0C0FF400BD2F8031022820008731BA2F69
:020000040001F9
:04000E00E43FFF3E8E
:00000001FF
