:0400000080312728FC
:100008007E1480310B1F09280A2825282100921DFB
:100018000E280F281A282000921D132814281A28A1
:100028002D088A002C080A00803125282100911DFE
:100038001E281F2825282000911D2328242825282C
:1000480014287E100900803129287030840000307F
:10005800850008308131B92180312030840000309A
:1000680085000E308131B92180317E102000803129
:10007800A62882311C2280318131B2218031003A98
:100088000319472848285628823104228031003A2B
:1000980003194F28502853280130F0008C280230CB
:1000A800F0008C28823104228031003A03195D283F
:1000B8005E2861280330F0008C280430F0008C287A
:1000C80081318C2180318131AB218031003A031993
:1000D8006E286F28A228813172218031A2288131AF
:1000E8008C218031A2288131AB218031003A03195B
:1000F8007E287F28A2286F28823112228031003A78
:10010800031987288828A22881317F218031A228D5
:100118007008FA00FB017B08003A03199428A2280A
:100128007A08013A03196428033A03197328013A33
:1001380003197728073A03198028A228823119223F
:10014800803108008131652180318B170B1781318F
:1001580099218031230094019301B32800002000E5
:100168008C1CB728B828B228BA28000020008C18A0
:10017800BE28BF28B9288031EA20803144302000C9
:10018800AE000130AF008131BF2180311F30200027
:10019800AE000230AF008131E9218031AA3023005E
:1001A80091000A3092001513951722000C142300B1
:1001B80015140000000022000C1023001308F5009D
:1001C8001408F4000000E6288031272881315621E0
:1001D800803108308131D12180317F308131CB218C
:1001E80080313D302000AE000030AF008131DD218C
:1001F800803100302000AE000030AF008131E321B3
:100208008031F5302000AE000130AF008131BF21D0
:100218008031FF302000AE000130AF008131D7219E
:10022800803109302000AE000230AF008131E92171
:10023800803100302000AE000030AF008131C52190
:1002480080318231162280310800220090018C0111
:100258008D018E01083021009000FE308C00FF30A7
:100268008D00FF308E003F3023008D003D308C0024
:10027800240090018D012100951722009D0108009E
:100288007608031D48294929502975088131EF212D
:1002980081310130F600552974088131EF2181310F
:1002A800F60108002400951A5A295B29642994014B
:1002B80006302000AE002E082400950496019516FD
:1002C80008008131992181318131292181318131A0
:1002D800A421813182310E228131080020002808B2
:1002E80029040319782979297E2929088A002808E8
:1002F8000A008131080020002A082B0403198529E7
:1003080086298B292B088A002A080A0081310800CF
:1003180020002608270403199229932998292708D9
:100328008A0026080A00813108002400940106305A
:100338002000AE002E0824009504960195120800AE
:100348003A30210099009801220096010800031014
:100358002400141C03140030093D08000310240075
:10036800941E03140030093D080064008001013127
:10037800890BBA29003420002F08A9002E08A800EC
:10038800080020002F08A3002E08A2000800200063
:10039800AE002E352400930008002000AE002E3554
:1003A80024009200080020002F08AB002E08AA00A5
:1003B800080020002F08AD002E08AC00080020001F
:1003C8002F08A5002E08A400080020002F08A70069
:1003D8002E08A6000800F90079088131FA21813138
:1003E800080073088131FA2181310800F800780883
:1003F800240091000800823122228131F200080095
:100408002400140C890C013908008231222282311F
:10041800F100080016302100970008002400140895
:10042800013908002100911508002400151608005C
:100438002000911108002400110808002400110868
:020448000800AA
:020000040001F9
:04000E00E43FFF3E8E
:00000001FF
